{
  "_format": "hh-sol-artifact-1",
  "contractName": "GetNftData",
  "sourceName": "contracts/GetNftData.sol",
  "abi": [
    {
      "inputs": [
        {
          "internalType": "address",
          "name": "TokenCA",
          "type": "address"
        },
        {
          "internalType": "uint256",
          "name": "tokenId",
          "type": "uint256"
        }
      ],
      "name": "ownerOf",
      "outputs": [
        {
          "internalType": "address",
          "name": "",
          "type": "address"
        }
      ],
      "stateMutability": "view",
      "type": "function"
    },
    {
      "inputs": [
        {
          "internalType": "address",
          "name": "TokenCA",
          "type": "address"
        },
        {
          "internalType": "uint256",
          "name": "tokenId",
          "type": "uint256"
        }
      ],
      "name": "tokenURI",
      "outputs": [
        {
          "internalType": "string",
          "name": "",
          "type": "string"
        }
      ],
      "stateMutability": "view",
      "type": "function"
    }
  ],
  "bytecode": "0x608060405234801561001057600080fd5b50610583806100206000396000f3fe608060405234801561001057600080fd5b50600436106100365760003560e01c80631f29d2dc1461003b578063e9dc63751461006b575b600080fd5b610055600480360381019061005091906102a1565b61009b565b6040516100629190610375565b60405180910390f35b610085600480360381019061008091906102a1565b610133565b6040516100929190610390565b60405180910390f35b6000808390508073ffffffffffffffffffffffffffffffffffffffff16636352211e846040518263ffffffff1660e01b81526004016100da91906103b2565b60206040518083038186803b1580156100f257600080fd5b505afa158015610106573d6000803e3d6000fd5b505050506040513d601f19601f8201168201806040525081019061012a9190610278565b91505092915050565b606060008390508073ffffffffffffffffffffffffffffffffffffffff1663c87b56dd846040518263ffffffff1660e01b815260040161017391906103b2565b60006040518083038186803b15801561018b57600080fd5b505afa15801561019f573d6000803e3d6000fd5b505050506040513d6000823e3d601f19601f820116820180604052508101906101c891906102dd565b91505092915050565b60006101e46101df846103f2565b6103cd565b9050828152602081018484840111156101fc57600080fd5b61020784828561047b565b509392505050565b60008135905061021e8161051f565b92915050565b6000815190506102338161051f565b92915050565b600082601f83011261024a57600080fd5b815161025a8482602086016101d1565b91505092915050565b60008135905061027281610536565b92915050565b60006020828403121561028a57600080fd5b600061029884828501610224565b91505092915050565b600080604083850312156102b457600080fd5b60006102c28582860161020f565b92505060206102d385828601610263565b9150509250929050565b6000602082840312156102ef57600080fd5b600082015167ffffffffffffffff81111561030957600080fd5b61031584828501610239565b91505092915050565b6103278161043f565b82525050565b600061033882610423565b610342818561042e565b935061035281856020860161047b565b61035b8161050e565b840191505092915050565b61036f81610471565b82525050565b600060208201905061038a600083018461031e565b92915050565b600060208201905081810360008301526103aa818461032d565b905092915050565b60006020820190506103c76000830184610366565b92915050565b60006103d76103e8565b90506103e382826104ae565b919050565b6000604051905090565b600067ffffffffffffffff82111561040d5761040c6104df565b5b6104168261050e565b9050602081019050919050565b600081519050919050565b600082825260208201905092915050565b600061044a82610451565b9050919050565b600073ffffffffffffffffffffffffffffffffffffffff82169050919050565b6000819050919050565b60005b8381101561049957808201518184015260208101905061047e565b838111156104a8576000848401525b50505050565b6104b78261050e565b810181811067ffffffffffffffff821117156104d6576104d56104df565b5b80604052505050565b7f4e487b7100000000000000000000000000000000000000000000000000000000600052604160045260246000fd5b6000601f19601f8301169050919050565b6105288161043f565b811461053357600080fd5b50565b61053f81610471565b811461054a57600080fd5b5056fea26469706673582212208eb82b914c4b205d3455412ba2a9d818e0c6e0e9f1159aa4f066ef3007d9509564736f6c63430008010033",
  "linkReferences": {},
  "deployedLinkReferences": {}
}