{
  "_format": "hh-sol-artifact-1",
  "contractName": "TestToken",
  "sourceName": "contracts/TestToken.sol",
  "abi": [
    {
      "inputs": [
        {
          "internalType": "string",
          "name": "name_",
          "type": "string"
        },
        {
          "internalType": "string",
          "name": "symbol_",
          "type": "string"
        },
        {
          "internalType": "uint256",
          "name": "price_",
          "type": "uint256"
        }
      ],
      "stateMutability": "nonpayable",
      "type": "constructor"
    },
    {
      "anonymous": false,
      "inputs": [
        {
          "indexed": true,
          "internalType": "address",
          "name": "owner",
          "type": "address"
        },
        {
          "indexed": true,
          "internalType": "address",
          "name": "approved",
          "type": "address"
        },
        {
          "indexed": true,
          "internalType": "uint256",
          "name": "tokenId",
          "type": "uint256"
        }
      ],
      "name": "Approval",
      "type": "event"
    },
    {
      "anonymous": false,
      "inputs": [
        {
          "indexed": true,
          "internalType": "address",
          "name": "owner",
          "type": "address"
        },
        {
          "indexed": true,
          "internalType": "address",
          "name": "operator",
          "type": "address"
        },
        {
          "indexed": false,
          "internalType": "bool",
          "name": "approved",
          "type": "bool"
        }
      ],
      "name": "ApprovalForAll",
      "type": "event"
    },
    {
      "anonymous": false,
      "inputs": [
        {
          "indexed": true,
          "internalType": "address",
          "name": "from",
          "type": "address"
        },
        {
          "indexed": true,
          "internalType": "address",
          "name": "to",
          "type": "address"
        },
        {
          "indexed": true,
          "internalType": "uint256",
          "name": "tokenId",
          "type": "uint256"
        }
      ],
      "name": "Transfer",
      "type": "event"
    },
    {
      "inputs": [
        {
          "internalType": "address",
          "name": "to",
          "type": "address"
        },
        {
          "internalType": "uint256",
          "name": "tokenId",
          "type": "uint256"
        }
      ],
      "name": "approve",
      "outputs": [],
      "stateMutability": "nonpayable",
      "type": "function"
    },
    {
      "inputs": [
        {
          "internalType": "address",
          "name": "owner",
          "type": "address"
        }
      ],
      "name": "balanceOf",
      "outputs": [
        {
          "internalType": "uint256",
          "name": "",
          "type": "uint256"
        }
      ],
      "stateMutability": "view",
      "type": "function"
    },
    {
      "inputs": [
        {
          "internalType": "uint256",
          "name": "tokenId",
          "type": "uint256"
        }
      ],
      "name": "getApproved",
      "outputs": [
        {
          "internalType": "address",
          "name": "",
          "type": "address"
        }
      ],
      "stateMutability": "view",
      "type": "function"
    },
    {
      "inputs": [],
      "name": "getCA",
      "outputs": [
        {
          "internalType": "address",
          "name": "",
          "type": "address"
        }
      ],
      "stateMutability": "view",
      "type": "function"
    },
    {
      "inputs": [
        {
          "internalType": "address",
          "name": "owner",
          "type": "address"
        },
        {
          "internalType": "address",
          "name": "operator",
          "type": "address"
        }
      ],
      "name": "isApprovedForAll",
      "outputs": [
        {
          "internalType": "bool",
          "name": "",
          "type": "bool"
        }
      ],
      "stateMutability": "view",
      "type": "function"
    },
    {
      "inputs": [
        {
          "internalType": "uint256",
          "name": "tokenId",
          "type": "uint256"
        }
      ],
      "name": "mint",
      "outputs": [],
      "stateMutability": "nonpayable",
      "type": "function"
    },
    {
      "inputs": [],
      "name": "name",
      "outputs": [
        {
          "internalType": "string",
          "name": "",
          "type": "string"
        }
      ],
      "stateMutability": "view",
      "type": "function"
    },
    {
      "inputs": [
        {
          "internalType": "uint256",
          "name": "tokenId",
          "type": "uint256"
        }
      ],
      "name": "ownerOf",
      "outputs": [
        {
          "internalType": "address",
          "name": "",
          "type": "address"
        }
      ],
      "stateMutability": "view",
      "type": "function"
    },
    {
      "inputs": [],
      "name": "price",
      "outputs": [
        {
          "internalType": "uint256",
          "name": "",
          "type": "uint256"
        }
      ],
      "stateMutability": "view",
      "type": "function"
    },
    {
      "inputs": [
        {
          "internalType": "address",
          "name": "from",
          "type": "address"
        },
        {
          "internalType": "address",
          "name": "to",
          "type": "address"
        },
        {
          "internalType": "uint256",
          "name": "tokenId",
          "type": "uint256"
        }
      ],
      "name": "safeTransferFrom",
      "outputs": [],
      "stateMutability": "nonpayable",
      "type": "function"
    },
    {
      "inputs": [
        {
          "internalType": "address",
          "name": "from",
          "type": "address"
        },
        {
          "internalType": "address",
          "name": "to",
          "type": "address"
        },
        {
          "internalType": "uint256",
          "name": "tokenId",
          "type": "uint256"
        },
        {
          "internalType": "bytes",
          "name": "data",
          "type": "bytes"
        }
      ],
      "name": "safeTransferFrom",
      "outputs": [],
      "stateMutability": "nonpayable",
      "type": "function"
    },
    {
      "inputs": [
        {
          "internalType": "address",
          "name": "operator",
          "type": "address"
        },
        {
          "internalType": "bool",
          "name": "approved",
          "type": "bool"
        }
      ],
      "name": "setApprovalForAll",
      "outputs": [],
      "stateMutability": "nonpayable",
      "type": "function"
    },
    {
      "inputs": [
        {
          "internalType": "bytes4",
          "name": "interfaceId",
          "type": "bytes4"
        }
      ],
      "name": "supportsInterface",
      "outputs": [
        {
          "internalType": "bool",
          "name": "",
          "type": "bool"
        }
      ],
      "stateMutability": "view",
      "type": "function"
    },
    {
      "inputs": [],
      "name": "symbol",
      "outputs": [
        {
          "internalType": "string",
          "name": "",
          "type": "string"
        }
      ],
      "stateMutability": "view",
      "type": "function"
    },
    {
      "inputs": [
        {
          "internalType": "uint256",
          "name": "tokenId",
          "type": "uint256"
        }
      ],
      "name": "tokenURI",
      "outputs": [
        {
          "internalType": "string",
          "name": "",
          "type": "string"
        }
      ],
      "stateMutability": "view",
      "type": "function"
    },
    {
      "inputs": [
        {
          "internalType": "address",
          "name": "from",
          "type": "address"
        },
        {
          "internalType": "address",
          "name": "to",
          "type": "address"
        },
        {
          "internalType": "uint256",
          "name": "tokenId",
          "type": "uint256"
        }
      ],
      "name": "transferFrom",
      "outputs": [],
      "stateMutability": "nonpayable",
      "type": "function"
    }
  ],
  "bytecode": "0x60806040526040518060400160405280601481526020017f687474703a2f2f746573742e626173655552492f0000000000000000000000008152506007908051906020019062000051929190620000cb565b503480156200005f57600080fd5b5060405162002ac438038062002ac4833981810160405281019062000085919062000204565b828281600090805190602001906200009f929190620000cb565b508060019080519060200190620000b8929190620000cb565b5050508060068190555050505062000420565b828054620000d9906200032b565b90600052602060002090601f016020900481019282620000fd576000855562000149565b82601f106200011857805160ff191683800117855562000149565b8280016001018555821562000149579182015b82811115620001485782518255916020019190600101906200012b565b5b5090506200015891906200015c565b5090565b5b80821115620001775760008160009055506001016200015d565b5090565b6000620001926200018c84620002b5565b6200028c565b905082815260208101848484011115620001ab57600080fd5b620001b8848285620002f5565b509392505050565b600082601f830112620001d257600080fd5b8151620001e48482602086016200017b565b91505092915050565b600081519050620001fe8162000406565b92915050565b6000806000606084860312156200021a57600080fd5b600084015167ffffffffffffffff8111156200023557600080fd5b6200024386828701620001c0565b935050602084015167ffffffffffffffff8111156200026157600080fd5b6200026f86828701620001c0565b92505060406200028286828701620001ed565b9150509250925092565b600062000298620002ab565b9050620002a6828262000361565b919050565b6000604051905090565b600067ffffffffffffffff821115620002d357620002d2620003c6565b5b620002de82620003f5565b9050602081019050919050565b6000819050919050565b60005b8381101562000315578082015181840152602081019050620002f8565b8381111562000325576000848401525b50505050565b600060028204905060018216806200034457607f821691505b602082108114156200035b576200035a62000397565b5b50919050565b6200036c82620003f5565b810181811067ffffffffffffffff821117156200038e576200038d620003c6565b5b80604052505050565b7f4e487b7100000000000000000000000000000000000000000000000000000000600052602260045260246000fd5b7f4e487b7100000000000000000000000000000000000000000000000000000000600052604160045260246000fd5b6000601f19601f8301169050919050565b6200041181620002eb565b81146200041d57600080fd5b50565b61269480620004306000396000f3fe608060405234801561001057600080fd5b50600436106101005760003560e01c806395d89b4111610097578063b88d4fde11610066578063b88d4fde146102ab578063c87b56dd146102c7578063e985e9c5146102f7578063fd8cf8881461032757610100565b806395d89b4114610237578063a035b1fe14610255578063a0712d6814610273578063a22cb4651461028f57610100565b806323b872dd116100d357806323b872dd1461019f57806342842e0e146101bb5780636352211e146101d757806370a082311461020757610100565b806301ffc9a71461010557806306fdde0314610135578063081812fc14610153578063095ea7b314610183575b600080fd5b61011f600480360381019061011a9190611c05565b610345565b60405161012c9190611f5c565b60405180910390f35b61013d610427565b60405161014a9190611f77565b60405180910390f35b61016d60048036038101906101689190611c57565b6104b9565b60405161017a9190611ef5565b60405180910390f35b61019d60048036038101906101989190611bc9565b6104ff565b005b6101b960048036038101906101b49190611ac3565b610617565b005b6101d560048036038101906101d09190611ac3565b610677565b005b6101f160048036038101906101ec9190611c57565b610697565b6040516101fe9190611ef5565b60405180910390f35b610221600480360381019061021c9190611a5e565b61071e565b60405161022e91906120f9565b60405180910390f35b61023f6107d6565b60405161024c9190611f77565b60405180910390f35b61025d610868565b60405161026a91906120f9565b60405180910390f35b61028d60048036038101906102889190611c57565b61086e565b005b6102a960048036038101906102a49190611b8d565b61087b565b005b6102c560048036038101906102c09190611b12565b610891565b005b6102e160048036038101906102dc9190611c57565b6108f3565b6040516102ee9190611f77565b60405180910390f35b610311600480360381019061030c9190611a87565b61095b565b60405161031e9190611f5c565b60405180910390f35b61032f6109ef565b60405161033c9190611ef5565b60405180910390f35b60007f80ac58cd000000000000000000000000000000000000000000000000000000007bffffffffffffffffffffffffffffffffffffffffffffffffffffffff1916827bffffffffffffffffffffffffffffffffffffffffffffffffffffffff1916148061041057507f5b5e139f000000000000000000000000000000000000000000000000000000007bffffffffffffffffffffffffffffffffffffffffffffffffffffffff1916827bffffffffffffffffffffffffffffffffffffffffffffffffffffffff1916145b80610420575061041f826109f7565b5b9050919050565b60606000805461043690612263565b80601f016020809104026020016040519081016040528092919081815260200182805461046290612263565b80156104af5780601f10610484576101008083540402835291602001916104af565b820191906000526020600020905b81548152906001019060200180831161049257829003601f168201915b5050505050905090565b60006104c482610a61565b6004600083815260200190815260200160002060009054906101000a900473ffffffffffffffffffffffffffffffffffffffff169050919050565b600061050a82610697565b90508073ffffffffffffffffffffffffffffffffffffffff168373ffffffffffffffffffffffffffffffffffffffff16141561057b576040517f08c379a0000000000000000000000000000000000000000000000000000000008152600401610572906120b9565b60405180910390fd5b8073ffffffffffffffffffffffffffffffffffffffff1661059a610aac565b73ffffffffffffffffffffffffffffffffffffffff1614806105c957506105c8816105c3610aac565b61095b565b5b610608576040517f08c379a00000000000000000000000000000000000000000000000000000000081526004016105ff906120d9565b60405180910390fd5b6106128383610ab4565b505050565b610628610622610aac565b82610b6d565b610667576040517f08c379a000000000000000000000000000000000000000000000000000000000815260040161065e90611f99565b60405180910390fd5b610672838383610c02565b505050565b61069283838360405180602001604052806000815250610891565b505050565b6000806106a383610efc565b9050600073ffffffffffffffffffffffffffffffffffffffff168173ffffffffffffffffffffffffffffffffffffffff161415610715576040517f08c379a000000000000000000000000000000000000000000000000000000000815260040161070c90612099565b60405180910390fd5b80915050919050565b60008073ffffffffffffffffffffffffffffffffffffffff168273ffffffffffffffffffffffffffffffffffffffff16141561078f576040517f08c379a000000000000000000000000000000000000000000000000000000000815260040161078690612059565b60405180910390fd5b600360008373ffffffffffffffffffffffffffffffffffffffff1673ffffffffffffffffffffffffffffffffffffffff168152602001908152602001600020549050919050565b6060600180546107e590612263565b80601f016020809104026020016040519081016040528092919081815260200182805461081190612263565b801561085e5780601f106108335761010080835404028352916020019161085e565b820191906000526020600020905b81548152906001019060200180831161084157829003601f168201915b5050505050905090565b60065481565b6108783382610f39565b50565b61088d610886610aac565b8383610f57565b5050565b6108a261089c610aac565b83610b6d565b6108e1576040517f08c379a00000000000000000000000000000000000000000000000000000000081526004016108d890611f99565b60405180910390fd5b6108ed848484846110c4565b50505050565b60606108fe82610a61565b6000610908611120565b905060008151116109285760405180602001604052806000815250610953565b80610932846111b2565b604051602001610943929190611ed1565b6040516020818303038152906040525b915050919050565b6000600560008473ffffffffffffffffffffffffffffffffffffffff1673ffffffffffffffffffffffffffffffffffffffff16815260200190815260200160002060008373ffffffffffffffffffffffffffffffffffffffff1673ffffffffffffffffffffffffffffffffffffffff16815260200190815260200160002060009054906101000a900460ff16905092915050565b600030905090565b60007f01ffc9a7000000000000000000000000000000000000000000000000000000007bffffffffffffffffffffffffffffffffffffffffffffffffffffffff1916827bffffffffffffffffffffffffffffffffffffffffffffffffffffffff1916149050919050565b610a6a816112d6565b610aa9576040517f08c379a0000000000000000000000000000000000000000000000000000000008152600401610aa090612099565b60405180910390fd5b50565b600033905090565b816004600083815260200190815260200160002060006101000a81548173ffffffffffffffffffffffffffffffffffffffff021916908373ffffffffffffffffffffffffffffffffffffffff160217905550808273ffffffffffffffffffffffffffffffffffffffff16610b2783610697565b73ffffffffffffffffffffffffffffffffffffffff167f8c5be1e5ebec7d5bd14f71427d1e84f3dd0314c0f7b2291e5b200ac8c7c3b92560405160405180910390a45050565b600080610b7983610697565b90508073ffffffffffffffffffffffffffffffffffffffff168473ffffffffffffffffffffffffffffffffffffffff161480610bbb5750610bba818561095b565b5b80610bf957508373ffffffffffffffffffffffffffffffffffffffff16610be1846104b9565b73ffffffffffffffffffffffffffffffffffffffff16145b91505092915050565b8273ffffffffffffffffffffffffffffffffffffffff16610c2282610697565b73ffffffffffffffffffffffffffffffffffffffff1614610c78576040517f08c379a0000000000000000000000000000000000000000000000000000000008152600401610c6f90611fd9565b60405180910390fd5b600073ffffffffffffffffffffffffffffffffffffffff168273ffffffffffffffffffffffffffffffffffffffff161415610ce8576040517f08c379a0000000000000000000000000000000000000000000000000000000008152600401610cdf90612019565b60405180910390fd5b610cf58383836001611317565b8273ffffffffffffffffffffffffffffffffffffffff16610d1582610697565b73ffffffffffffffffffffffffffffffffffffffff1614610d6b576040517f08c379a0000000000000000000000000000000000000000000000000000000008152600401610d6290611fd9565b60405180910390fd5b6004600082815260200190815260200160002060006101000a81549073ffffffffffffffffffffffffffffffffffffffff02191690556001600360008573ffffffffffffffffffffffffffffffffffffffff1673ffffffffffffffffffffffffffffffffffffffff168152602001908152602001600020600082825403925050819055506001600360008473ffffffffffffffffffffffffffffffffffffffff1673ffffffffffffffffffffffffffffffffffffffff16815260200190815260200160002060008282540192505081905550816002600083815260200190815260200160002060006101000a81548173ffffffffffffffffffffffffffffffffffffffff021916908373ffffffffffffffffffffffffffffffffffffffff160217905550808273ffffffffffffffffffffffffffffffffffffffff168473ffffffffffffffffffffffffffffffffffffffff167fddf252ad1be2c89b69c2b068fc378daa952ba7f163c4a11628f55a4df523b3ef60405160405180910390a4610ef7838383600161131d565b505050565b60006002600083815260200190815260200160002060009054906101000a900473ffffffffffffffffffffffffffffffffffffffff169050919050565b610f53828260405180602001604052806000815250611323565b5050565b8173ffffffffffffffffffffffffffffffffffffffff168373ffffffffffffffffffffffffffffffffffffffff161415610fc6576040517f08c379a0000000000000000000000000000000000000000000000000000000008152600401610fbd90612039565b60405180910390fd5b80600560008573ffffffffffffffffffffffffffffffffffffffff1673ffffffffffffffffffffffffffffffffffffffff16815260200190815260200160002060008473ffffffffffffffffffffffffffffffffffffffff1673ffffffffffffffffffffffffffffffffffffffff16815260200190815260200160002060006101000a81548160ff0219169083151502179055508173ffffffffffffffffffffffffffffffffffffffff168373ffffffffffffffffffffffffffffffffffffffff167f17307eab39ab6107e8899845ad3d59bd9653f200f220920489ca2b5937696c31836040516110b79190611f5c565b60405180910390a3505050565b6110cf848484610c02565b6110db8484848461137e565b61111a576040517f08c379a000000000000000000000000000000000000000000000000000000000815260040161111190611fb9565b60405180910390fd5b50505050565b60606007805461112f90612263565b80601f016020809104026020016040519081016040528092919081815260200182805461115b90612263565b80156111a85780601f1061117d576101008083540402835291602001916111a8565b820191906000526020600020905b81548152906001019060200180831161118b57829003601f168201915b5050505050905090565b6060600060016111c184611515565b01905060008167ffffffffffffffff811115611206577f4e487b7100000000000000000000000000000000000000000000000000000000600052604160045260246000fd5b6040519080825280601f01601f1916602001820160405280156112385781602001600182028036833780820191505090505b509050600082602001820190505b6001156112cb578080600190039150507f3031323334353637383961626364656600000000000000000000000000000000600a86061a8153600a85816112b5577f4e487b7100000000000000000000000000000000000000000000000000000000600052601260045260246000fd5b04945060008514156112c6576112cb565b611246565b819350505050919050565b60008073ffffffffffffffffffffffffffffffffffffffff166112f883610efc565b73ffffffffffffffffffffffffffffffffffffffff1614159050919050565b50505050565b50505050565b61132d838361174c565b61133a600084848461137e565b611379576040517f08c379a000000000000000000000000000000000000000000000000000000000815260040161137090611fb9565b60405180910390fd5b505050565b600061139f8473ffffffffffffffffffffffffffffffffffffffff1661196a565b15611508578373ffffffffffffffffffffffffffffffffffffffff1663150b7a026113c8610aac565b8786866040518563ffffffff1660e01b81526004016113ea9493929190611f10565b602060405180830381600087803b15801561140457600080fd5b505af192505050801561143557506040513d601f19601f820116820180604052508101906114329190611c2e565b60015b6114b8573d8060008114611465576040519150601f19603f3d011682016040523d82523d6000602084013e61146a565b606091505b506000815114156114b0576040517f08c379a00000000000000000000000000000000000000000000000000000000081526004016114a790611fb9565b60405180910390fd5b805181602001fd5b63150b7a0260e01b7bffffffffffffffffffffffffffffffffffffffffffffffffffffffff1916817bffffffffffffffffffffffffffffffffffffffffffffffffffffffff19161491505061150d565b600190505b949350505050565b600080600090507a184f03e93ff9f4daa797ed6e38ed64bf6a1f0100000000000000008310611599577a184f03e93ff9f4daa797ed6e38ed64bf6a1f010000000000000000838161158f577f4e487b7100000000000000000000000000000000000000000000000000000000600052601260045260246000fd5b0492506040810190505b6d04ee2d6d415b85acef810000000083106115fc576d04ee2d6d415b85acef810000000083816115f2577f4e487b7100000000000000000000000000000000000000000000000000000000600052601260045260246000fd5b0492506020810190505b662386f26fc10000831061165157662386f26fc100008381611647577f4e487b7100000000000000000000000000000000000000000000000000000000600052601260045260246000fd5b0492506010810190505b6305f5e10083106116a0576305f5e1008381611696577f4e487b7100000000000000000000000000000000000000000000000000000000600052601260045260246000fd5b0492506008810190505b61271083106116eb5761271083816116e1577f4e487b7100000000000000000000000000000000000000000000000000000000600052601260045260246000fd5b0492506004810190505b60648310611734576064838161172a577f4e487b7100000000000000000000000000000000000000000000000000000000600052601260045260246000fd5b0492506002810190505b600a8310611743576001810190505b80915050919050565b600073ffffffffffffffffffffffffffffffffffffffff168273ffffffffffffffffffffffffffffffffffffffff1614156117bc576040517f08c379a00000000000000000000000000000000000000000000000000000000081526004016117b390612079565b60405180910390fd5b6117c5816112d6565b15611805576040517f08c379a00000000000000000000000000000000000000000000000000000000081526004016117fc90611ff9565b60405180910390fd5b611813600083836001611317565b61181c816112d6565b1561185c576040517f08c379a000000000000000000000000000000000000000000000000000000000815260040161185390611ff9565b60405180910390fd5b6001600360008473ffffffffffffffffffffffffffffffffffffffff1673ffffffffffffffffffffffffffffffffffffffff16815260200190815260200160002060008282540192505081905550816002600083815260200190815260200160002060006101000a81548173ffffffffffffffffffffffffffffffffffffffff021916908373ffffffffffffffffffffffffffffffffffffffff160217905550808273ffffffffffffffffffffffffffffffffffffffff16600073ffffffffffffffffffffffffffffffffffffffff167fddf252ad1be2c89b69c2b068fc378daa952ba7f163c4a11628f55a4df523b3ef60405160405180910390a461196660008383600161131d565b5050565b6000808273ffffffffffffffffffffffffffffffffffffffff163b119050919050565b60006119a061199b84612139565b612114565b9050828152602081018484840111156119b857600080fd5b6119c3848285612221565b509392505050565b6000813590506119da81612602565b92915050565b6000813590506119ef81612619565b92915050565b600081359050611a0481612630565b92915050565b600081519050611a1981612630565b92915050565b600082601f830112611a3057600080fd5b8135611a4084826020860161198d565b91505092915050565b600081359050611a5881612647565b92915050565b600060208284031215611a7057600080fd5b6000611a7e848285016119cb565b91505092915050565b60008060408385031215611a9a57600080fd5b6000611aa8858286016119cb565b9250506020611ab9858286016119cb565b9150509250929050565b600080600060608486031215611ad857600080fd5b6000611ae6868287016119cb565b9350506020611af7868287016119cb565b9250506040611b0886828701611a49565b9150509250925092565b60008060008060808587031215611b2857600080fd5b6000611b36878288016119cb565b9450506020611b47878288016119cb565b9350506040611b5887828801611a49565b925050606085013567ffffffffffffffff811115611b7557600080fd5b611b8187828801611a1f565b91505092959194509250565b60008060408385031215611ba057600080fd5b6000611bae858286016119cb565b9250506020611bbf858286016119e0565b9150509250929050565b60008060408385031215611bdc57600080fd5b6000611bea858286016119cb565b9250506020611bfb85828601611a49565b9150509250929050565b600060208284031215611c1757600080fd5b6000611c25848285016119f5565b91505092915050565b600060208284031215611c4057600080fd5b6000611c4e84828501611a0a565b91505092915050565b600060208284031215611c6957600080fd5b6000611c7784828501611a49565b91505092915050565b611c89816121ad565b82525050565b611c98816121bf565b82525050565b6000611ca98261216a565b611cb38185612180565b9350611cc3818560208601612230565b611ccc81612324565b840191505092915050565b6000611ce282612175565b611cec8185612191565b9350611cfc818560208601612230565b611d0581612324565b840191505092915050565b6000611d1b82612175565b611d2581856121a2565b9350611d35818560208601612230565b80840191505092915050565b6000611d4e602d83612191565b9150611d5982612335565b604082019050919050565b6000611d71603283612191565b9150611d7c82612384565b604082019050919050565b6000611d94602583612191565b9150611d9f826123d3565b604082019050919050565b6000611db7601c83612191565b9150611dc282612422565b602082019050919050565b6000611dda602483612191565b9150611de58261244b565b604082019050919050565b6000611dfd601983612191565b9150611e088261249a565b602082019050919050565b6000611e20602983612191565b9150611e2b826124c3565b604082019050919050565b6000611e43602083612191565b9150611e4e82612512565b602082019050919050565b6000611e66601883612191565b9150611e718261253b565b602082019050919050565b6000611e89602183612191565b9150611e9482612564565b604082019050919050565b6000611eac603d83612191565b9150611eb7826125b3565b604082019050919050565b611ecb81612217565b82525050565b6000611edd8285611d10565b9150611ee98284611d10565b91508190509392505050565b6000602082019050611f0a6000830184611c80565b92915050565b6000608082019050611f256000830187611c80565b611f326020830186611c80565b611f3f6040830185611ec2565b8181036060830152611f518184611c9e565b905095945050505050565b6000602082019050611f716000830184611c8f565b92915050565b60006020820190508181036000830152611f918184611cd7565b905092915050565b60006020820190508181036000830152611fb281611d41565b9050919050565b60006020820190508181036000830152611fd281611d64565b9050919050565b60006020820190508181036000830152611ff281611d87565b9050919050565b6000602082019050818103600083015261201281611daa565b9050919050565b6000602082019050818103600083015261203281611dcd565b9050919050565b6000602082019050818103600083015261205281611df0565b9050919050565b6000602082019050818103600083015261207281611e13565b9050919050565b6000602082019050818103600083015261209281611e36565b9050919050565b600060208201905081810360008301526120b281611e59565b9050919050565b600060208201905081810360008301526120d281611e7c565b9050919050565b600060208201905081810360008301526120f281611e9f565b9050919050565b600060208201905061210e6000830184611ec2565b92915050565b600061211e61212f565b905061212a8282612295565b919050565b6000604051905090565b600067ffffffffffffffff821115612154576121536122f5565b5b61215d82612324565b9050602081019050919050565b600081519050919050565b600081519050919050565b600082825260208201905092915050565b600082825260208201905092915050565b600081905092915050565b60006121b8826121f7565b9050919050565b60008115159050919050565b60007fffffffff0000000000000000000000000000000000000000000000000000000082169050919050565b600073ffffffffffffffffffffffffffffffffffffffff82169050919050565b6000819050919050565b82818337600083830152505050565b60005b8381101561224e578082015181840152602081019050612233565b8381111561225d576000848401525b50505050565b6000600282049050600182168061227b57607f821691505b6020821081141561228f5761228e6122c6565b5b50919050565b61229e82612324565b810181811067ffffffffffffffff821117156122bd576122bc6122f5565b5b80604052505050565b7f4e487b7100000000000000000000000000000000000000000000000000000000600052602260045260246000fd5b7f4e487b7100000000000000000000000000000000000000000000000000000000600052604160045260246000fd5b6000601f19601f8301169050919050565b7f4552433732313a2063616c6c6572206973206e6f7420746f6b656e206f776e6560008201527f72206f7220617070726f76656400000000000000000000000000000000000000602082015250565b7f4552433732313a207472616e7366657220746f206e6f6e20455243373231526560008201527f63656976657220696d706c656d656e7465720000000000000000000000000000602082015250565b7f4552433732313a207472616e736665722066726f6d20696e636f72726563742060008201527f6f776e6572000000000000000000000000000000000000000000000000000000602082015250565b7f4552433732313a20746f6b656e20616c7265616479206d696e74656400000000600082015250565b7f4552433732313a207472616e7366657220746f20746865207a65726f2061646460008201527f7265737300000000000000000000000000000000000000000000000000000000602082015250565b7f4552433732313a20617070726f766520746f2063616c6c657200000000000000600082015250565b7f4552433732313a2061646472657373207a65726f206973206e6f74206120766160008201527f6c6964206f776e65720000000000000000000000000000000000000000000000602082015250565b7f4552433732313a206d696e7420746f20746865207a65726f2061646472657373600082015250565b7f4552433732313a20696e76616c696420746f6b656e2049440000000000000000600082015250565b7f4552433732313a20617070726f76616c20746f2063757272656e74206f776e6560008201527f7200000000000000000000000000000000000000000000000000000000000000602082015250565b7f4552433732313a20617070726f76652063616c6c6572206973206e6f7420746f60008201527f6b656e206f776e6572206f7220617070726f76656420666f7220616c6c000000602082015250565b61260b816121ad565b811461261657600080fd5b50565b612622816121bf565b811461262d57600080fd5b50565b612639816121cb565b811461264457600080fd5b50565b61265081612217565b811461265b57600080fd5b5056fea2646970667358221220d84b5cfabe4e8add6d5dd6ffdc587c85dac57af015237c2b41da8b8f7884877664736f6c63430008010033",
  "linkReferences": {},
  "deployedLinkReferences": {}
}